:100000000C942A000C94F9010C941C020C943F02ED
:100010000C9447000C9447000C9447000C94470044
:100020000C9447000C9447000C9447000C94570222
:100030000C9447000C9447000C9447000C94470024
:100040000C9447000C9447000C9447000C94470014
:100050000C94470011241FBECFE5D8E0DEBFCDBF12
:1000600010E0A0E6B0E0EAE3F4E102C005900D92F2
:10007000A236B107D9F720E0A2E6B0E001C01D9298
:10008000AB36B207E1F70E9452040C941B0A0C94A1
:10009000000080E00E94AD0681E00E94AD06109253
:1000A00069000E94E1030E94F3030E94050480E0BE
:1000B0000E94AE0281E00E94AE020895809162002B
:1000C000813049F480E00E94AE0281E00E94AE02DD
:1000D0001092620008952091600030E040E050E00E
:1000E00060E080E00E9445032091600030E040E045
:1000F00050E061E081E00E94450381E0809362006E
:1001000008951F93CF93DF93CDB7DEB7A8970FB6AF
:10011000F894DEBF0FBECDBF10E027C084E00E9480
:10012000EC068DE30E943207809168008230E1F78F
:10013000E12FF0E0EE0FFF1FEE0FFF1F21E030E098
:100140002C0F3D1FE20FF31F80916300909164001C
:10015000A0916500B091660080839183A283B383F0
:100160000E943507109268001F5F1A30B8F210E045
:1001700060E070E0CB0113C0E12FF0E0EE0FFF1F55
:10018000EE0FFF1F21E030E02C0F3D1FE20FF31FA9
:1001900020813181428153810E9470071F5F1A3094
:1001A00058F320E030E040E251E40E94F307A896C3
:1001B0000FB6F894DEBF0FBECDBFDF91CF911F9178
:1001C00008958F929F92AF92BF92CF92DF92EF925B
:1001D000FF92CF93DF931F92CDB7DEB7198280E0F5
:1001E0000E94960681E00E94960680916900811126
:1001F00008C0BE016F5F7F4F81E193E00E94A903B9
:1002000003C080916000898381E0809369000E942F
:1002100081006B017C010E94DC070E9465084B0194
:100220005C019B01AC0160E080E00E944503A501F8
:10023000940161E081E00E944503698170E080E003
:1002400090E00E9496084B015C019B01AC01C70144
:10025000B6010E946F0720E030E040EA50E40E94BF
:10026000630918162CF40E94E1030E94ED0319C0E3
:10027000A7019601C501B4010E946F0720E030E09C
:1002800040EA50E40E94630918162CF40E94F3031C
:100290000E94DB0306C00E94F3030E94E1030E9458
:1002A00005040E941F04813019F40E940B0406C04B
:1002B0000E941F04823011F40E94FF030F90DF910F
:1002C000CF91FF90EF90DF90CF90BF90AF909F9035
:1002D0008F900895CF93DF931F92CDB7DEB7198229
:1002E000BE016F5F7F4F81E193E00E94A903998176
:1002F00080916000981305C0809167008F5F8093A4
:100300006700809167008630B8F485E00E94EC06B3
:100310008CE00E9432076091600081E193E00E94CE
:100320008B030E945E00809168008430E1F70E9498
:10033000350710926800D4CF81E080936A000F9057
:10034000DF91CF91089562E080E00E94010662E0B3
:1003500081E00E94010662E082E00E94010680E0E6
:100360000E94C40680E00E94400740E062E083E013
:100370000E94720340E063E083E00E94720340E069
:1003800062E081E00E94720360E080E00E94C702A8
:1003900061E081E00E94C7020E94880360916000D2
:1003A00081E193E00E948B0383EC99E00197F1F7E0
:1003B00000C000000E94D5030E94E7030E94F903D9
:1003C00067E080E00E942F04089580916A008130E8
:1003D00039F018F0823039F009C00E944900F5CF99
:1003E0000E94E100F2CF0E946A01EFCF10926A00F2
:1003F000ECCF1F920F920FB60F9211248F93809122
:100400006A00823021F082E080936A000BC0809104
:1004100060008B3420F08BE48093600003C08B5F1E
:100420008093600010926800109267008F910F9087
:100430000FBE0F901F9018951F920F920FB60F923C
:1004400011248F9380916A00823021F082E08093A2
:100450006A000BC080916000843220F483E28093B4
:10046000600003C085508093600010926800109275
:1004700067008F910F900FBE0F901F9018951F92DD
:100480000F920FB60F9211248F9380916A00811101
:1004900004C081E080936A0004C0813011F410929E
:1004A0006A008F910F900FBE0F901F9018951F92AA
:1004B0000F920FB60F9211242F933F934F935F9398
:1004C0006F937F938F939F93AF93BF93EF93FF931C
:1004D000809168008F5F8093680090916A009130EE
:1004E00099F4823089F487E00E943504682F70E027
:1004F00080E090E00E949408609363007093640031
:100500008093650090936600FF91EF91BF91AF914A
:100510009F918F917F916F915F914F913F912F911B
:100520000F900FBE0F901F901895813051F441E04D
:1005300063E00E94E80441E063E081E00E94580526
:10054000089581110AC041E061E081E00E94E80461
:1005500041E061E081E00E9458050895813051F446
:1005600041E063E00E94E80440E063E081E00E9433
:100570005805089581110AC041E061E081E00E94C0
:10058000E80440E061E081E00E9458050895CF93BF
:10059000C82F6130A1F441E064E00E94E80441E02A
:1005A00065E08C2F0E94E80441E066E08C2F0E94F9
:1005B000E80441E067E08C2F0E94E80414C0611158
:1005C00012C041E00E94E80441E061E08C2F0E94EB
:1005D000E80441E062E08C2F0E94E80441E063E01F
:1005E0008C2F0E94E804CF910895613081F581300D
:1005F00081F028F08230B9F08330F9F008952BB300
:1006000030E1439FC0011124422F4F70842B8BBBDC
:10061000089528B330E1439FC0011124422F4F7049
:10062000842B88BB089525B330E1439FC00111247A
:10063000422F4F70842B85BB089522B330E1439F36
:10064000C0011124422F4F70842B82BB0895611189
:100650001BC0813059F028F0823069F0833081F07E
:100660000895807F4F70842B8BBB0895807F4F70DF
:10067000842B88BB0895807F4F70842B85BB0895A1
:10068000807F4F70842B82BB08951F93CF93DF939D
:10069000E62F243631054105510500F5CA01B9019F
:1006A000CE2F2AE030E040E050E00E94F909D22F3E
:1006B000162F80E00E94950281E00E949502C130D1
:1006C00031F4412F61E081E00E94F50207C0C111C1
:1006D00005C04D2F60E080E00E94F502DF91CF91D0
:1006E0001F910895CF93DF93C82FD62F411108C0D3
:1006F0000E94E80441E06D2F8C2F0E94580505C030
:10070000413019F440E00E94E804DF91CF91089550
:100710000E94510708951F93CF93DF93EC01162F8A
:100720000E945807CE0188279770880F892F881F4D
:10073000990B9195806A0E9461078C2F0E94610736
:10074000812F0E9461070E945E07DF91CF911F9168
:100750000895EF92FF920F931F93CF93DF938C0135
:100760007B010E945807E801CC27D770CC0FCD2F12
:10077000CC1FDD0BD1958C2F806A0E946107802FE2
:100780000E9461070E9458078C2F816A0E946107AE
:100790000E946807F70180830E945E07DF91CF9176
:1007A0001F910F91FF90EF90089541E062E082E089
:1007B0000E94E804089541E062E082E00E9458054A
:1007C000089540E062E082E00E945805089541E00B
:1007D00063E082E00E94E804089541E063E082E083
:1007E0000E945805089540E063E082E00E945805A9
:1007F000089541E064E082E00E94E804089541E049
:1008000064E082E00E945805089540E064E082E0E0
:100810000E945805089541E064E082E00E94580576
:100820002FE38DE093E0215080409040E1F700C03D
:10083000000040E064E082E00E945805089562E014
:1008400082E00E94C805813049F063E082E00E94A6
:10085000C805813011F482E0089580E0089540E4F5
:1008600061E080E00E94590408950E94D204BC0116
:1008700080E090E00E94940820E030E040EA50E4FC
:100880000E94680920E030E040E85AE30E946809CD
:1008900020E030E048EC52E40E9468090E946508BC
:1008A000862F08950E94A3010E94E50180E090E058
:1008B000089596B1906896B9813021F497B190620D
:1008C00097B905C0811103C097B19F7D97B9611198
:1008D00007C087B18F7787B987B18F7B87B908C089
:1008E000813031F487B1806887B987B1806487B976
:1008F000403181F140F44430C9F0483009F14230D0
:1009000009F04FC009C04034C9F1403809F440C073
:10091000403209F046C028C086B18E7F86B986B1C4
:100920008D7F86B986B18B7F86B9089586B18E7F1B
:1009300086B986B1826086B986B18B7F86B9089503
:1009400086B1816086B986B1826086B986B18B7FB7
:1009500086B9089586B18E7F86B986B18D7F86B9B6
:1009600086B1846086B9089586B1816086B986B102
:100970008D7F86B986B1846086B9089586B18E7FF1
:1009800086B986B1826086B986B1846086B90895D9
:1009900086B1816086B986B1826086B986B184608D
:1009A00086B90895877097B1907E97B997B1892BD2
:1009B00087B924B185B190E0982F8827822B26B182
:1009C000206426B9349BFECF26B1206126B9089554
:1009D0004130A1F5813089F028F08230C9F08330B0
:1009E00011F108952AB381E090E002C0880F991FA9
:1009F0006A95E2F7822B8ABB089527B381E090E0E5
:100A000002C0880F991F6A95E2F7822B87BB089571
:100A100024B381E090E002C0880F991F6A95E2F745
:100A2000822B84BB089521B381E090E002C0880F3F
:100A3000991F6A95E2F7822B81BB0895411137C057
:100A4000813091F028F08230D9F0833029F1089577
:100A50002AB381E090E002C0880F991F6A95E2F7FF
:100A6000809582238ABB089527B381E090E002C07D
:100A7000880F991F6A95E2F78095822387BB0895B6
:100A800024B381E090E002C0880F991F6A95E2F7D5
:100A90008095822384BB089521B381E090E002C059
:100AA000880F991F6A95E2F78095822381BB08958C
:100AB0004130A1F5813089F028F08230C9F08330CF
:100AC00011F108952BB381E090E002C0880F991FC7
:100AD0006A95E2F7822B8BBB089528B381E090E002
:100AE00002C0880F991F6A95E2F7822B88BB089590
:100AF00025B381E090E002C0880F991F6A95E2F764
:100B0000822B85BB089522B381E090E002C0880F5C
:100B1000991F6A95E2F7822B82BB0895411137C075
:100B2000813091F028F08230D9F0833029F1089596
:100B30002BB381E090E002C0880F991F6A95E2F71D
:100B4000809582238BBB089528B381E090E002C09A
:100B5000880F991F6A95E2F78095822388BB0895D4
:100B600025B381E090E002C0880F991F6A95E2F7F3
:100B70008095822385BB089522B381E090E002C076
:100B8000880F991F6A95E2F78095822382BB0895AA
:100B9000813079F028F08230A9F08330E1F024C070
:100BA00089B390E002C0959587956A95E2F78170C8
:100BB000089586B390E002C0959587956A95E2F70F
:100BC0008170089583B390E002C0959587956A95EA
:100BD000E2F78170089580B390E002C09595879503
:100BE0006A95E2F78170089580E00895813021F4DC
:100BF0008FB780688FBF03C08FB78F778FBF80E0BC
:100C00000895CF93DF93C82FD62F81E00E94F60579
:100C1000C130D1F120F0C23009F46AC07DC0D111D9
:100C20000BC085B78E7F85BF85B78D7F85BF8BB79E
:100C300080648BBF80E077C0D13059F485B7816084
:100C400085BF85B78D7F85BF8BB780648BBF80E004
:100C50006AC0D23059F485B78E7F85BF85B7826070
:100C600085BF8BB780648BBF80E05DC0D33009F057
:100C700055C085B7816085BF85B7826085BF8BB75A
:100C800080648BBF80E04FC0D1110BC085B78B7FD4
:100C900085BF85B7877F85BF8BB780688BBF80E0B6
:100CA00042C0D13059F485B7846085BF85B7877F4E
:100CB00085BF8BB780688BBF80E035C0D23059F4D8
:100CC00085B78B7F85BF85B7886085BF8BB7806808
:100CD0008BBF80E028C0D33019F585B7846085BF0D
:100CE00085B7886085BF8BB780688BBF80E01BC0ED
:100CF000D23041F484B78F7B84BF8BB780628BBFC7
:100D000080E011C0D33071F484B7806484BF8BB7A6
:100D100080628BBF80E007C081E005C081E003C036
:100D200081E001C081E0DF91CF910895813049F0E9
:100D300018F0823059F00FC08BB780648BBF80E011
:100D400008958BB780688BBF80E008958BB7806271
:100D50008BBF80E0089581E00895813049F018F05C
:100D6000823059F00FC08BB78F7B8BBF80E0089526
:100D70008BB78F778BBF80E008958BB78F7D8BBF4C
:100D800080E0089581E00895813069F028F0823094
:100D900089F08330B1F01EC083B7877F83BF83B7EC
:100DA0008F7B83BF14C083B7886083BF83B78F7B7B
:100DB00083BF0DC083B7886083BF83B7806483BF60
:100DC00006C083B7877F83BF83B7806483BF12BEAB
:100DD00080E0089581E00895833009F128F481309E
:100DE00041F0823089F03CC0843021F1853069F1D6
:100DF00037C083B7816083BF83B78D7F83BF83B7DD
:100E00008B7F83BF80E0089583B78E7F83BF83B7D6
:100E1000826083BF83B78B7F83BF80E0089583B7F1
:100E2000816083BF83B7826083BF83B78B7F83BFBB
:100E300080E0089583B78E7F83BF83B78D7F83BFA4
:100E400083B7846083BF80E0089583B7816083BFE8
:100E500083B78D7F83BF83B7846083BF80E00895AD
:100E600081E0089582BF80E0089583B78E7F83BFBD
:100E700083B78D7F83BF83B78B7F83BF80E0089567
:100E8000882319F0813031F00AC089B7816089BFA9
:100E900080E0089589B7826089BF80E0089581E08D
:100EA000089582E080B911B882B984E086BF0895C0
:100EB00084EA86BF06B607FEFDCF089584E986BFA3
:100EC000089583B984E886BF06B607FEFDCF08956E
:100ED00084E886BF06B607FEFDCF83B1089550585B
:100EE000BB27AA270E9487070C9411090E940309B7
:100EF00038F00E940A0920F039F49F3F19F426F4D3
:100F00000C9400090EF4E095E7FB0C94D108E92F4E
:100F10000E94220958F3BA176207730784079507DE
:100F200020F079F4A6F50C945C090EF4E0950B2EF4
:100F3000BA2FA02D0B01B90190010C01CA01A0012B
:100F40001124FF27591B99F0593F50F4503E68F186
:100F50001A16F040A22F232F342F4427585FF3CFC7
:100F6000469537952795A795F0405395C9F77EF498
:100F70001F16BA0B620B730B840BBAF09150A1F0E1
:100F8000FF0FBB1F661F771F881FC2F70EC0BA0F67
:100F9000621F731F841F48F4879577956795B795EF
:100FA000F7959E3F08F0B0CF9395880F08F09927EA
:100FB000EE0F9795879508950E94440990F09F370A
:100FC00048F4911116F40C945D0960E070E080E83B
:100FD0009FE3089526F01B16611D711D811D0C9461
:100FE000D7080C94F2080E9407080C9411090E947B
:100FF0000A0958F00E94030940F029F45F3F29F0E4
:101000000C94D10851110C945D090C9400090E94B4
:10101000220968F39923B1F3552391F3951B550BDE
:10102000BB27AA2762177307840738F09F5F5F4FBB
:10103000220F331F441FAA1FA9F335D00E2E3AF0FA
:10104000E0E832D091505040E695001CCAF72BD012
:10105000FE2F29D0660F771F881FBB1F2617370763
:101060004807AB07B0E809F0BB0B802DBF01FF2795
:1010700093585F4F3AF09E3F510578F00C94D10899
:101080000C945D095F3FE4F3983ED4F38695779521
:101090006795B795F7959F5FC9F7880F911D96954E
:1010A000879597F90895E1E0660F771F881FBB1FAA
:1010B000621773078407BA0720F0621B730B840B57
:1010C000BA0BEE1F88F7E09508950E942A0988F070
:1010D0009F5798F0B92F9927B751B0F0E1F0660FFC
:1010E000771F881F991F1AF0BA95C9F714C0B1303D
:1010F00091F00E945C09B1E008950C945C09672F9F
:10110000782F8827B85F39F0B93FCCF3869577956B
:101110006795B395D9F73EF4909580957095619554
:101120007F4F8F4F9F4F0895E89409C097FB3EF47F
:1011300090958095709561957F4F8F4F9F4F992324
:10114000A9F0F92F96E9BB279395F69587957795A2
:101150006795B795F111F8CFFAF4BB0F11F460FF62
:101160001BC06F5F7F4F8F4F9F4F16C0882311F0BA
:1011700096E911C0772321F09EE8872F762F05C0CE
:10118000662371F096E8862F70E060E02AF09A9569
:10119000660F771F881FDAF7880F9695879597F95E
:1011A000089597F99F6780E870E060E008958823CC
:1011B00071F4772321F09850872B762F07C0662390
:1011C00011F499270DC09051862B70E060E02AF051
:1011D0009A95660F771F881FDAF7880F969587957F
:1011E00097F908959F3F31F0915020F487957795B6
:1011F0006795B795880F911D9695879597F90895EE
:101200009FEF80EC089500240A941616170618061E
:101210000906089500240A941216130614060506FA
:101220000895092E0394000C11F4882352F0BB0F8B
:1012300040F4BF2B11F460FF04C06F5F7F4F8F4FEE
:101240009F4F089557FD9058440F551F59F05F3F29
:1012500071F04795880F97FB991F61F09F3F79F0D8
:1012600087950895121613061406551FF2CF46955A
:10127000F1DF08C0161617061806991FF1CF8695DC
:1012800071056105089408950E942A09A0F0BEE73F
:10129000B91788F4BB279F3860F41616B11D672F65
:1012A000782F8827985FF7CF869577956795B11D3A
:1012B00093959639C8F30895E894BB276627772756
:1012C000CB0197F908950E94D50908F48FEF08958E
:1012D0000E947B090C9411090E94030938F00E94B6
:1012E0000A0920F0952311F00C94D1080C94000900
:1012F00011240C945D090E94220970F3959FC1F39B
:10130000950F50E0551F629FF001729FBB27F00DB3
:10131000B11D639FAA27F00DB11DAA1F649F662708
:10132000B00DA11D661F829F2227B00DA11D621F57
:10133000739FB00DA11D621F839FA00D611D221F11
:10134000749F3327A00D611D231F849F600D211DF5
:10135000822F762F6A2F11249F5750409AF0F1F078
:1013600088234AF0EE0FFF1FBB1F661F771F881FE1
:1013700091505040A9F79E3F510580F00C94D10840
:101380000C945D095F3FE4F3983ED4F3869577951E
:101390006795B795F795E7959F5FC1F7FE2B880F87
:1013A000911D9695879597F90895990F0008550F07
:1013B000AA0BE0E8FEEF16161706E807F907C0F0DB
:1013C00012161306E407F50798F0621B730B840BE3
:1013D000950B39F40A2661F0232B242B252B21F4BD
:1013E00008950A2609F4A140A6958FEF811D811D5D
:1013F0000895A1E21A2EAA1BBB1BFD010DC0AA1F56
:10140000BB1FEE1FFF1FA217B307E407F50720F06D
:10141000A21BB30BE40BF50B661F771F881F991FE8
:101420001A9469F760957095809590959B01AC0131
:0A143000BD01CF010895F894FFCF2D
:02143A003C0074
:00000001FF
